{
  "contractName": "ERC721",
  "abi": [
    {
      "anonymous": false,
      "inputs": [
        {
          "indexed": true,
          "internalType": "address",
          "name": "from",
          "type": "address"
        },
        {
          "indexed": true,
          "internalType": "address",
          "name": "to",
          "type": "address"
        },
        {
          "indexed": true,
          "internalType": "uint256",
          "name": "tokenId",
          "type": "uint256"
        }
      ],
      "name": "Transfer",
      "type": "event"
    },
    {
      "inputs": [
        {
          "internalType": "address",
          "name": "_owner",
          "type": "address"
        }
      ],
      "name": "balanceOf",
      "outputs": [
        {
          "internalType": "uint256",
          "name": "",
          "type": "uint256"
        }
      ],
      "stateMutability": "view",
      "type": "function"
    },
    {
      "inputs": [
        {
          "internalType": "uint256",
          "name": "tokenId",
          "type": "uint256"
        }
      ],
      "name": "ownerOf",
      "outputs": [
        {
          "internalType": "address",
          "name": "",
          "type": "address"
        }
      ],
      "stateMutability": "view",
      "type": "function"
    },
    {
      "inputs": [
        {
          "internalType": "address",
          "name": "_from",
          "type": "address"
        },
        {
          "internalType": "address",
          "name": "_to",
          "type": "address"
        },
        {
          "internalType": "uint256",
          "name": "_tokenId",
          "type": "uint256"
        }
      ],
      "name": "transferFrom",
      "outputs": [],
      "stateMutability": "nonpayable",
      "type": "function"
    }
  ],
  "bytecode": "0x608060405234801561001057600080fd5b506108ce806100206000396000f3fe608060405234801561001057600080fd5b50600436106100415760003560e01c806323b872dd146100465780636352211e1461006257806370a0823114610092575b600080fd5b610060600480360381019061005b9190610517565b6100c2565b005b61007c6004803603810190610077919061056a565b6100d2565b60405161008991906105a6565b60405180910390f35b6100ac60048036038101906100a791906105c1565b610183565b6040516100b991906105fd565b60405180910390f35b6100cd83838361023b565b505050565b60008060008084815260200190815260200160002060009054906101000a900473ffffffffffffffffffffffffffffffffffffffff169050600073ffffffffffffffffffffffffffffffffffffffff168173ffffffffffffffffffffffffffffffffffffffff16141561017a576040517f08c379a00000000000000000000000000000000000000000000000000000000081526004016101719061069b565b60405180910390fd5b80915050919050565b60008073ffffffffffffffffffffffffffffffffffffffff168273ffffffffffffffffffffffffffffffffffffffff1614156101f4576040517f08c379a00000000000000000000000000000000000000000000000000000000081526004016101eb9061069b565b60405180910390fd5b600160008373ffffffffffffffffffffffffffffffffffffffff1673ffffffffffffffffffffffffffffffffffffffff168152602001908152602001600020549050919050565b600073ffffffffffffffffffffffffffffffffffffffff168273ffffffffffffffffffffffffffffffffffffffff1614156102ab576040517f08c379a00000000000000000000000000000000000000000000000000000000081526004016102a29061072d565b60405180910390fd5b8273ffffffffffffffffffffffffffffffffffffffff166102cb826100d2565b73ffffffffffffffffffffffffffffffffffffffff1614610321576040517f08c379a0000000000000000000000000000000000000000000000000000000008152600401610318906107bf565b60405180910390fd5b60018060008573ffffffffffffffffffffffffffffffffffffffff1673ffffffffffffffffffffffffffffffffffffffff1681526020019081526020016000206000828254610370919061080e565b9250508190555060018060008473ffffffffffffffffffffffffffffffffffffffff1673ffffffffffffffffffffffffffffffffffffffff16815260200190815260200160002060008282546103c69190610842565b925050819055508160008083815260200190815260200160002060006101000a81548173ffffffffffffffffffffffffffffffffffffffff021916908373ffffffffffffffffffffffffffffffffffffffff160217905550808273ffffffffffffffffffffffffffffffffffffffff168473ffffffffffffffffffffffffffffffffffffffff167fddf252ad1be2c89b69c2b068fc378daa952ba7f163c4a11628f55a4df523b3ef60405160405180910390a4505050565b600080fd5b600073ffffffffffffffffffffffffffffffffffffffff82169050919050565b60006104ae82610483565b9050919050565b6104be816104a3565b81146104c957600080fd5b50565b6000813590506104db816104b5565b92915050565b6000819050919050565b6104f4816104e1565b81146104ff57600080fd5b50565b600081359050610511816104eb565b92915050565b6000806000606084860312156105305761052f61047e565b5b600061053e868287016104cc565b935050602061054f868287016104cc565b925050604061056086828701610502565b9150509250925092565b6000602082840312156105805761057f61047e565b5b600061058e84828501610502565b91505092915050565b6105a0816104a3565b82525050565b60006020820190506105bb6000830184610597565b92915050565b6000602082840312156105d7576105d661047e565b5b60006105e5848285016104cc565b91505092915050565b6105f7816104e1565b82525050565b600060208201905061061260008301846105ee565b92915050565b600082825260208201905092915050565b7f6f776e657220717565727920666f72206e6f772d6578697374656e7420746f6b60008201527f656e000000000000000000000000000000000000000000000000000000000000602082015250565b6000610685602283610618565b915061069082610629565b604082019050919050565b600060208201905081810360008301526106b481610678565b9050919050565b7f4572726f72204552433732312c207472616e7366657220746f20746865207a6560008201527f726f206164647265737300000000000000000000000000000000000000000000602082015250565b6000610717602a83610618565b9150610722826106bb565b604082019050919050565b600060208201905081810360008301526107468161070a565b9050919050565b7f547279696e6720746f207472616e73666572206120746f6b656e20746865206160008201527f64647265737320646f6573206e6f74206f776e20000000000000000000000000602082015250565b60006107a9603483610618565b91506107b48261074d565b604082019050919050565b600060208201905081810360008301526107d88161079c565b9050919050565b7f4e487b7100000000000000000000000000000000000000000000000000000000600052601160045260246000fd5b6000610819826104e1565b9150610824836104e1565b925082821015610837576108366107df565b5b828203905092915050565b600061084d826104e1565b9150610858836104e1565b9250827fffffffffffffffffffffffffffffffffffffffffffffffffffffffffffffffff0382111561088d5761088c6107df565b5b82820190509291505056fea264697066735822122018e1820c8a5567ca9166c9821b48239aaf87d5f7020491abd81e3f36a3f1268964736f6c634300080b0033",
  "immutableReferences": {},
  "source": "// SPDX-License-Identifier: MIT\n// pragma solidity >=0.4.22 <0.9.0;\npragma solidity ^0.8.0;\n\ncontract ERC721 {\n    event Transfer(\n        address indexed from,\n        address indexed to,\n        uint256 indexed tokenId\n    );\n\n    // event Approval(\n    //     address indexed owner,\n    //     address indexed approve,\n    //     uint256 indexed tokenId\n    // );\n\n    mapping(uint256 => address) private _tokenOwner;\n    // mapping from owner to number of owned tokens\n    mapping(address => uint256) private _ownedTokensCount;\n    mapping(uint256 => address) private _tokenApprovals;\n\n    function _exists(uint256 tokenId) internal view returns (bool) {\n        address owner = _tokenOwner[tokenId];\n        return owner != address(0);\n    }\n\n    function balanceOf(address _owner) public view returns (uint256) {\n        require(_owner != address(0), \"owner query for now-existent token\");\n        return _ownedTokensCount[_owner];\n    }\n\n    function ownerOf(uint256 tokenId) public view returns (address) {\n        address owner = _tokenOwner[tokenId];\n        require(owner != address(0), \"owner query for now-existent token\");\n        return owner;\n    }\n\n    function _mint(address to, uint256 tokenId) internal virtual {\n        require(to != address(0), \"ERC721: minting to the zero address\");\n        require(!_exists(tokenId), \"ERC721: token already minted\");\n        _tokenOwner[tokenId] = to;\n        //  _ownedTokensCount[to] = _ownedTokensCount[to] + 1 ; //or\n        _ownedTokensCount[to] += 1;\n        emit Transfer(address(0), to, tokenId);\n    }\n\n    function _transferFrom(\n        address _from,\n        address _to,\n        uint256 _tokenId\n    ) internal {\n        require(\n            _to != address(0),\n            \"Error ERC721, transfer to the zero address\"\n        );\n        require(\n            ownerOf(_tokenId) == _from,\n            \"Trying to transfer a token the address does not own \"\n        );\n        _ownedTokensCount[_from] -= 1;\n        _ownedTokensCount[_to] += 1;\n        _tokenOwner[_tokenId] = _to;\n        emit Transfer(_from, _to, _tokenId);\n    }\n\n    // function approve(address _to, uint256 tokenId) {\n    //     address owner = ownerOf(tokenId);\n    //     require(_to != owner, \"Error- approval current owner \");\n    //     require(\n    //         msg.sender == owner,\n    //         \"current caller is not the owner of the token\"\n    //     );\n    //     _tokenApprovals[tokenId] = _to;\n    // }\n\n    function transferFrom(\n        address _from,\n        address _to,\n        uint256 _tokenId\n    ) public {\n        _transferFrom(_from, _to, _tokenId);\n    }\n}\n",
  "sourcePath": "/home/ahmadkhatib/Downloads/Programming-WebDesign/NFTs/nft-marketplace/src/contracts/ERC721.sol",
  "compiler": {
    "name": "solc",
    "version": "0.8.11+commit.d7f03943.Emscripten.clang"
  },
  "schemaVersion": "3.4.3",
  "updatedAt": "2021-12-26T11:18:39.017Z",
  "devdoc": {
    "kind": "dev",
    "methods": {},
    "version": 1
  },
  "userdoc": {
    "kind": "user",
    "methods": {},
    "version": 1
  }
}