{
  "contractName": "KryptoBird",
  "abi": [
    {
      "inputs": [],
      "stateMutability": "nonpayable",
      "type": "constructor"
    },
    {
      "anonymous": false,
      "inputs": [
        {
          "indexed": true,
          "internalType": "address",
          "name": "from",
          "type": "address"
        },
        {
          "indexed": true,
          "internalType": "address",
          "name": "to",
          "type": "address"
        },
        {
          "indexed": true,
          "internalType": "uint256",
          "name": "tokenId",
          "type": "uint256"
        }
      ],
      "name": "Transfer",
      "type": "event"
    },
    {
      "inputs": [
        {
          "internalType": "address",
          "name": "_owner",
          "type": "address"
        }
      ],
      "name": "balanceOf",
      "outputs": [
        {
          "internalType": "uint256",
          "name": "",
          "type": "uint256"
        }
      ],
      "stateMutability": "view",
      "type": "function",
      "constant": true
    },
    {
      "inputs": [
        {
          "internalType": "uint256",
          "name": "",
          "type": "uint256"
        }
      ],
      "name": "kryptoBirdz",
      "outputs": [
        {
          "internalType": "string",
          "name": "",
          "type": "string"
        }
      ],
      "stateMutability": "view",
      "type": "function",
      "constant": true
    },
    {
      "inputs": [],
      "name": "name",
      "outputs": [
        {
          "internalType": "string",
          "name": "",
          "type": "string"
        }
      ],
      "stateMutability": "view",
      "type": "function",
      "constant": true
    },
    {
      "inputs": [
        {
          "internalType": "uint256",
          "name": "tokenId",
          "type": "uint256"
        }
      ],
      "name": "ownerOf",
      "outputs": [
        {
          "internalType": "address",
          "name": "",
          "type": "address"
        }
      ],
      "stateMutability": "view",
      "type": "function",
      "constant": true
    },
    {
      "inputs": [],
      "name": "symbol",
      "outputs": [
        {
          "internalType": "string",
          "name": "",
          "type": "string"
        }
      ],
      "stateMutability": "view",
      "type": "function",
      "constant": true
    },
    {
      "inputs": [
        {
          "internalType": "uint256",
          "name": "index",
          "type": "uint256"
        }
      ],
      "name": "tokenByIndex",
      "outputs": [
        {
          "internalType": "uint256",
          "name": "",
          "type": "uint256"
        }
      ],
      "stateMutability": "view",
      "type": "function",
      "constant": true
    },
    {
      "inputs": [
        {
          "internalType": "address",
          "name": "owner",
          "type": "address"
        },
        {
          "internalType": "uint256",
          "name": "index",
          "type": "uint256"
        }
      ],
      "name": "tokenOfOwnerByIndex",
      "outputs": [
        {
          "internalType": "uint256",
          "name": "",
          "type": "uint256"
        }
      ],
      "stateMutability": "view",
      "type": "function",
      "constant": true
    },
    {
      "inputs": [],
      "name": "totalSupply",
      "outputs": [
        {
          "internalType": "uint256",
          "name": "",
          "type": "uint256"
        }
      ],
      "stateMutability": "view",
      "type": "function",
      "constant": true
    },
    {
      "inputs": [
        {
          "internalType": "address",
          "name": "_from",
          "type": "address"
        },
        {
          "internalType": "address",
          "name": "_to",
          "type": "address"
        },
        {
          "internalType": "uint256",
          "name": "_tokenId",
          "type": "uint256"
        }
      ],
      "name": "transferFrom",
      "outputs": [],
      "stateMutability": "nonpayable",
      "type": "function"
    },
    {
      "inputs": [
        {
          "internalType": "string",
          "name": "_kryptoBird",
          "type": "string"
        }
      ],
      "name": "mint",
      "outputs": [],
      "stateMutability": "nonpayable",
      "type": "function"
    }
  ],
  "bytecode": "0x60806040523480156200001157600080fd5b506040518060400160405280600a81526020017f4b727970746f42697264000000000000000000000000000000000000000000008152506040518060400160405280600681526020017f4b424952445a00000000000000000000000000000000000000000000000000008152508181816000908051906020019062000098929190620000bc565b508060019080519060200190620000b1929190620000bc565b5050505050620001d1565b828054620000ca906200019b565b90600052602060002090601f016020900481019282620000ee57600085556200013a565b82601f106200010957805160ff19168380011785556200013a565b828001600101855582156200013a579182015b82811115620001395782518255916020019190600101906200011c565b5b5090506200014991906200014d565b5090565b5b80821115620001685760008160009055506001016200014e565b5090565b7f4e487b7100000000000000000000000000000000000000000000000000000000600052602260045260246000fd5b60006002820490506001821680620001b457607f821691505b60208210811415620001cb57620001ca6200016c565b5b50919050565b6117d780620001e16000396000f3fe608060405234801561001057600080fd5b506004361061009e5760003560e01c80636352211e116100665780636352211e1461015b57806370a082311461018b57806393ab6e56146101bb57806395d89b41146101eb578063d85d3d27146102095761009e565b806306fdde03146100a357806318160ddd146100c157806323b872dd146100df5780632f745c59146100fb5780634f6ccce71461012b575b600080fd5b6100ab610225565b6040516100b89190610e84565b60405180910390f35b6100c96102b7565b6040516100d69190610ebf565b60405180910390f35b6100f960048036038101906100f49190610f78565b6102c4565b005b61011560048036038101906101109190610fcb565b6102d4565b6040516101229190610ebf565b60405180910390f35b6101456004803603810190610140919061100b565b610384565b6040516101529190610ebf565b60405180910390f35b6101756004803603810190610170919061100b565b6103f5565b6040516101829190611047565b60405180910390f35b6101a560048036038101906101a09190611062565b6104a7565b6040516101b29190610ebf565b60405180910390f35b6101d560048036038101906101d0919061100b565b61055f565b6040516101e29190610e84565b60405180910390f35b6101f361060b565b6040516102009190610e84565b60405180910390f35b610223600480360381019061021e91906111c4565b61069d565b005b6060600080546102349061123c565b80601f01602080910402602001604051908101604052809291908181526020018280546102609061123c565b80156102ad5780601f10610282576101008083540402835291602001916102ad565b820191906000526020600020905b81548152906001019060200180831161029057829003601f168201915b5050505050905090565b6000600580549050905090565b6102cf8383836107a0565b505050565b60006102df836104a7565b8210610320576040517f08c379a0000000000000000000000000000000000000000000000000000000008152600401610317906112ba565b60405180910390fd5b600760008473ffffffffffffffffffffffffffffffffffffffff1673ffffffffffffffffffffffffffffffffffffffff1681526020019081526020016000208281548110610371576103706112da565b5b9060005260206000200154905092915050565b600061038e6102b7565b82106103cf576040517f08c379a00000000000000000000000000000000000000000000000000000000081526004016103c690611355565b60405180910390fd5b600582815481106103e3576103e26112da565b5b90600052602060002001549050919050565b6000806002600084815260200190815260200160002060009054906101000a900473ffffffffffffffffffffffffffffffffffffffff169050600073ffffffffffffffffffffffffffffffffffffffff168173ffffffffffffffffffffffffffffffffffffffff16141561049e576040517f08c379a0000000000000000000000000000000000000000000000000000000008152600401610495906113e7565b60405180910390fd5b80915050919050565b60008073ffffffffffffffffffffffffffffffffffffffff168273ffffffffffffffffffffffffffffffffffffffff161415610518576040517f08c379a000000000000000000000000000000000000000000000000000000000815260040161050f906113e7565b60405180910390fd5b600360008373ffffffffffffffffffffffffffffffffffffffff1673ffffffffffffffffffffffffffffffffffffffff168152602001908152602001600020549050919050565b6009818154811061056f57600080fd5b90600052602060002001600091509050805461058a9061123c565b80601f01602080910402602001604051908101604052809291908181526020018280546105b69061123c565b80156106035780601f106105d857610100808354040283529160200191610603565b820191906000526020600020905b8154815290600101906020018083116105e657829003601f168201915b505050505081565b60606001805461061a9061123c565b80601f01602080910402602001604051908101604052809291908181526020018280546106469061123c565b80156106935780601f1061066857610100808354040283529160200191610693565b820191906000526020600020905b81548152906001019060200180831161067657829003601f168201915b5050505050905090565b600a816040516106ad9190611443565b908152602001604051809103902060009054906101000a900460ff1615610709576040517f08c379a0000000000000000000000000000000000000000000000000000000008152600401610700906114a6565b60405180910390fd5b600981908060018154018082558091505060019003906000526020600020016000909190919091509080519060200190610744929190610d48565b506000600160098054905061075991906114f5565b905061076533826109e6565b6001600a836040516107779190611443565b908152602001604051809103902060006101000a81548160ff0219169083151502179055505050565b600073ffffffffffffffffffffffffffffffffffffffff168273ffffffffffffffffffffffffffffffffffffffff161415610810576040517f08c379a00000000000000000000000000000000000000000000000000000000081526004016108079061159b565b60405180910390fd5b8273ffffffffffffffffffffffffffffffffffffffff16610830826103f5565b73ffffffffffffffffffffffffffffffffffffffff1614610886576040517f08c379a000000000000000000000000000000000000000000000000000000000815260040161087d9061162d565b60405180910390fd5b6001600360008573ffffffffffffffffffffffffffffffffffffffff1673ffffffffffffffffffffffffffffffffffffffff16815260200190815260200160002060008282546108d691906114f5565b925050819055506001600360008473ffffffffffffffffffffffffffffffffffffffff1673ffffffffffffffffffffffffffffffffffffffff168152602001908152602001600020600082825461092d919061164d565b92505081905550816002600083815260200190815260200160002060006101000a81548173ffffffffffffffffffffffffffffffffffffffff021916908373ffffffffffffffffffffffffffffffffffffffff160217905550808273ffffffffffffffffffffffffffffffffffffffff168473ffffffffffffffffffffffffffffffffffffffff167fddf252ad1be2c89b69c2b068fc378daa952ba7f163c4a11628f55a4df523b3ef60405160405180910390a4505050565b6109f08282610a07565b6109f981610bc9565b610a038282610c12565b5050565b600073ffffffffffffffffffffffffffffffffffffffff168273ffffffffffffffffffffffffffffffffffffffff161415610a77576040517f08c379a0000000000000000000000000000000000000000000000000000000008152600401610a6e90611715565b60405180910390fd5b610a8081610cd6565b15610ac0576040517f08c379a0000000000000000000000000000000000000000000000000000000008152600401610ab790611781565b60405180910390fd5b816002600083815260200190815260200160002060006101000a81548173ffffffffffffffffffffffffffffffffffffffff021916908373ffffffffffffffffffffffffffffffffffffffff1602179055506001600360008473ffffffffffffffffffffffffffffffffffffffff1673ffffffffffffffffffffffffffffffffffffffff1681526020019081526020016000206000828254610b62919061164d565b92505081905550808273ffffffffffffffffffffffffffffffffffffffff16600073ffffffffffffffffffffffffffffffffffffffff167fddf252ad1be2c89b69c2b068fc378daa952ba7f163c4a11628f55a4df523b3ef60405160405180910390a45050565b6005805490506006600083815260200190815260200160002081905550600581908060018154018082558091505060019003906000526020600020016000909190919091505550565b600760008373ffffffffffffffffffffffffffffffffffffffff1673ffffffffffffffffffffffffffffffffffffffff168152602001908152602001600020805490506008600083815260200190815260200160002081905550600760008373ffffffffffffffffffffffffffffffffffffffff1673ffffffffffffffffffffffffffffffffffffffff1681526020019081526020016000208190806001815401808255809150506001900390600052602060002001600090919091909150555050565b6000806002600084815260200190815260200160002060009054906101000a900473ffffffffffffffffffffffffffffffffffffffff169050600073ffffffffffffffffffffffffffffffffffffffff168173ffffffffffffffffffffffffffffffffffffffff161415915050919050565b828054610d549061123c565b90600052602060002090601f016020900481019282610d765760008555610dbd565b82601f10610d8f57805160ff1916838001178555610dbd565b82800160010185558215610dbd579182015b82811115610dbc578251825591602001919060010190610da1565b5b509050610dca9190610dce565b5090565b5b80821115610de7576000816000905550600101610dcf565b5090565b600081519050919050565b600082825260208201905092915050565b60005b83811015610e25578082015181840152602081019050610e0a565b83811115610e34576000848401525b50505050565b6000601f19601f8301169050919050565b6000610e5682610deb565b610e608185610df6565b9350610e70818560208601610e07565b610e7981610e3a565b840191505092915050565b60006020820190508181036000830152610e9e8184610e4b565b905092915050565b6000819050919050565b610eb981610ea6565b82525050565b6000602082019050610ed46000830184610eb0565b92915050565b6000604051905090565b600080fd5b600080fd5b600073ffffffffffffffffffffffffffffffffffffffff82169050919050565b6000610f1982610eee565b9050919050565b610f2981610f0e565b8114610f3457600080fd5b50565b600081359050610f4681610f20565b92915050565b610f5581610ea6565b8114610f6057600080fd5b50565b600081359050610f7281610f4c565b92915050565b600080600060608486031215610f9157610f90610ee4565b5b6000610f9f86828701610f37565b9350506020610fb086828701610f37565b9250506040610fc186828701610f63565b9150509250925092565b60008060408385031215610fe257610fe1610ee4565b5b6000610ff085828601610f37565b925050602061100185828601610f63565b9150509250929050565b60006020828403121561102157611020610ee4565b5b600061102f84828501610f63565b91505092915050565b61104181610f0e565b82525050565b600060208201905061105c6000830184611038565b92915050565b60006020828403121561107857611077610ee4565b5b600061108684828501610f37565b91505092915050565b600080fd5b600080fd5b7f4e487b7100000000000000000000000000000000000000000000000000000000600052604160045260246000fd5b6110d182610e3a565b810181811067ffffffffffffffff821117156110f0576110ef611099565b5b80604052505050565b6000611103610eda565b905061110f82826110c8565b919050565b600067ffffffffffffffff82111561112f5761112e611099565b5b61113882610e3a565b9050602081019050919050565b82818337600083830152505050565b600061116761116284611114565b6110f9565b90508281526020810184848401111561118357611182611094565b5b61118e848285611145565b509392505050565b600082601f8301126111ab576111aa61108f565b5b81356111bb848260208601611154565b91505092915050565b6000602082840312156111da576111d9610ee4565b5b600082013567ffffffffffffffff8111156111f8576111f7610ee9565b5b61120484828501611196565b91505092915050565b7f4e487b7100000000000000000000000000000000000000000000000000000000600052602260045260246000fd5b6000600282049050600182168061125457607f821691505b602082108114156112685761126761120d565b5b50919050565b7f206f776e657220696e646578206f7574206f6620626f756e6473210000000000600082015250565b60006112a4601b83610df6565b91506112af8261126e565b602082019050919050565b600060208201905081810360008301526112d381611297565b9050919050565b7f4e487b7100000000000000000000000000000000000000000000000000000000600052603260045260246000fd5b7f20676c6f62616c20696e646578206f7574206f6620626f756e64732100000000600082015250565b600061133f601c83610df6565b915061134a82611309565b602082019050919050565b6000602082019050818103600083015261136e81611332565b9050919050565b7f6f776e657220717565727920666f72206e6f772d6578697374656e7420746f6b60008201527f656e000000000000000000000000000000000000000000000000000000000000602082015250565b60006113d1602283610df6565b91506113dc82611375565b604082019050919050565b60006020820190508181036000830152611400816113c4565b9050919050565b600081905092915050565b600061141d82610deb565b6114278185611407565b9350611437818560208601610e07565b80840191505092915050565b600061144f8284611412565b915081905092915050565b7f4572726f723a206b727970746f4269726420616c726561647920657869737400600082015250565b6000611490601f83610df6565b915061149b8261145a565b602082019050919050565b600060208201905081810360008301526114bf81611483565b9050919050565b7f4e487b7100000000000000000000000000000000000000000000000000000000600052601160045260246000fd5b600061150082610ea6565b915061150b83610ea6565b92508282101561151e5761151d6114c6565b5b828203905092915050565b7f4572726f72204552433732312c207472616e7366657220746f20746865207a6560008201527f726f206164647265737300000000000000000000000000000000000000000000602082015250565b6000611585602a83610df6565b915061159082611529565b604082019050919050565b600060208201905081810360008301526115b481611578565b9050919050565b7f547279696e6720746f207472616e73666572206120746f6b656e20746865206160008201527f64647265737320646f6573206e6f74206f776e20000000000000000000000000602082015250565b6000611617603483610df6565b9150611622826115bb565b604082019050919050565b600060208201905081810360008301526116468161160a565b9050919050565b600061165882610ea6565b915061166383610ea6565b9250827fffffffffffffffffffffffffffffffffffffffffffffffffffffffffffffffff03821115611698576116976114c6565b5b828201905092915050565b7f4552433732313a206d696e74696e6720746f20746865207a65726f206164647260008201527f6573730000000000000000000000000000000000000000000000000000000000602082015250565b60006116ff602383610df6565b915061170a826116a3565b604082019050919050565b6000602082019050818103600083015261172e816116f2565b9050919050565b7f4552433732313a20746f6b656e20616c7265616479206d696e74656400000000600082015250565b600061176b601c83610df6565b915061177682611735565b602082019050919050565b6000602082019050818103600083015261179a8161175e565b905091905056fea2646970667358221220e05d9bc17c5d895f3f663fce550554c78ae428a0e9050a319f1c9d2d9ed8ef4664736f6c634300080b0033",
  "immutableReferences": {},
  "source": "// SPDX-License-Identifier: MIT\npragma solidity ^0.8.0;\nimport \"./ERC721Connector.sol\";\n\ncontract KryptoBird is ERC721Connector {\n    //array to store our nfts\n    string[] public kryptoBirdz;\n    mapping(string => bool) _krptoBirdzExists;\n\n    function mint(string memory _kryptoBird) public {\n        require(\n            !_krptoBirdzExists[_kryptoBird],\n            \"Error: kryptoBird already exist\"\n        );\n\n        //  deprecated:  uint256 _id = kryptoBirdz.push(_kryptoBird);\n        //push no longer returns the length, but a ref to the added element\n        kryptoBirdz.push(_kryptoBird);\n        uint256 _id = kryptoBirdz.length - 1;\n        _mint(msg.sender, _id);\n\n        _krptoBirdzExists[_kryptoBird] = true;\n    }\n\n    constructor() ERC721Connector(\"KryptoBird\", \"KBIRDZ\") {}\n}\n",
  "sourcePath": "/home/ahmadkhatib/Downloads/Programming-WebDesign/NFTs/nft-marketplace/src/contracts/KryptoBirdz.sol",
  "compiler": {
    "name": "solc",
    "version": "0.8.11+commit.d7f03943.Emscripten.clang"
  },
  "schemaVersion": "3.4.3",
  "updatedAt": "2021-12-26T11:19:27.958Z",
  "networkType": "ethereum",
  "devdoc": {
    "kind": "dev",
    "methods": {},
    "version": 1
  },
  "userdoc": {
    "kind": "user",
    "methods": {},
    "version": 1
  }
}